{
  "_format": "hh-sol-artifact-1",
  "contractName": "BlindOracleFHEVault",
  "sourceName": "contracts/BlindOracleFHEVault.sol",
  "abi": [
    {
      "inputs": [],
      "stateMutability": "nonpayable",
      "type": "constructor"
    },
    {
      "inputs": [
        {
          "internalType": "bytes32",
          "name": "handle",
          "type": "bytes32"
        },
        {
          "internalType": "address",
          "name": "sender",
          "type": "address"
        }
      ],
      "name": "SenderNotAllowedToUseHandle",
      "type": "error"
    },
    {
      "inputs": [],
      "name": "ZamaProtocolUnsupported",
      "type": "error"
    },
    {
      "anonymous": false,
      "inputs": [
        {
          "indexed": true,
          "internalType": "address",
          "name": "user",
          "type": "address"
        },
        {
          "indexed": true,
          "internalType": "address",
          "name": "viewer",
          "type": "address"
        }
      ],
      "name": "BalanceAccessGranted",
      "type": "event"
    },
    {
      "anonymous": false,
      "inputs": [
        {
          "indexed": false,
          "internalType": "bool",
          "name": "required",
          "type": "bool"
        }
      ],
      "name": "ComplianceRequiredSet",
      "type": "event"
    },
    {
      "anonymous": false,
      "inputs": [
        {
          "indexed": true,
          "internalType": "address",
          "name": "user",
          "type": "address"
        },
        {
          "indexed": false,
          "internalType": "bytes32",
          "name": "encryptedBalanceHandle",
          "type": "bytes32"
        },
        {
          "indexed": false,
          "internalType": "uint256",
          "name": "timestamp",
          "type": "uint256"
        }
      ],
      "name": "PrivateDeposit",
      "type": "event"
    },
    {
      "anonymous": false,
      "inputs": [
        {
          "indexed": true,
          "internalType": "address",
          "name": "user",
          "type": "address"
        },
        {
          "indexed": false,
          "internalType": "bytes32",
          "name": "encryptedBalanceHandle",
          "type": "bytes32"
        },
        {
          "indexed": false,
          "internalType": "uint256",
          "name": "timestamp",
          "type": "uint256"
        }
      ],
      "name": "PrivateVaultCreated",
      "type": "event"
    },
    {
      "anonymous": false,
      "inputs": [
        {
          "indexed": true,
          "internalType": "address",
          "name": "user",
          "type": "address"
        },
        {
          "indexed": false,
          "internalType": "bytes32",
          "name": "encryptedBalanceHandle",
          "type": "bytes32"
        },
        {
          "indexed": false,
          "internalType": "uint256",
          "name": "timestamp",
          "type": "uint256"
        }
      ],
      "name": "PrivateWithdrawal",
      "type": "event"
    },
    {
      "anonymous": false,
      "inputs": [
        {
          "indexed": true,
          "internalType": "address",
          "name": "user",
          "type": "address"
        },
        {
          "indexed": false,
          "internalType": "bool",
          "name": "allowed",
          "type": "bool"
        }
      ],
      "name": "UserAllowedSet",
      "type": "event"
    },
    {
      "inputs": [],
      "name": "complianceRequired",
      "outputs": [
        {
          "internalType": "bool",
          "name": "",
          "type": "bool"
        }
      ],
      "stateMutability": "view",
      "type": "function"
    },
    {
      "inputs": [],
      "name": "confidentialProtocolId",
      "outputs": [
        {
          "internalType": "uint256",
          "name": "",
          "type": "uint256"
        }
      ],
      "stateMutability": "view",
      "type": "function"
    },
    {
      "inputs": [
        {
          "internalType": "externalEuint64",
          "name": "encryptedInitialBalance",
          "type": "bytes32"
        },
        {
          "internalType": "bytes",
          "name": "inputProof",
          "type": "bytes"
        }
      ],
      "name": "createPrivateVault",
      "outputs": [],
      "stateMutability": "nonpayable",
      "type": "function"
    },
    {
      "inputs": [
        {
          "internalType": "externalEuint64",
          "name": "encryptedAmount",
          "type": "bytes32"
        },
        {
          "internalType": "bytes",
          "name": "inputProof",
          "type": "bytes"
        }
      ],
      "name": "depositPrivate",
      "outputs": [],
      "stateMutability": "nonpayable",
      "type": "function"
    },
    {
      "inputs": [
        {
          "internalType": "address",
          "name": "user",
          "type": "address"
        }
      ],
      "name": "getEncryptedBalance",
      "outputs": [
        {
          "internalType": "euint64",
          "name": "",
          "type": "bytes32"
        }
      ],
      "stateMutability": "view",
      "type": "function"
    },
    {
      "inputs": [
        {
          "internalType": "address",
          "name": "user",
          "type": "address"
        }
      ],
      "name": "getEncryptedBalanceHandle",
      "outputs": [
        {
          "internalType": "bytes32",
          "name": "",
          "type": "bytes32"
        }
      ],
      "stateMutability": "view",
      "type": "function"
    },
    {
      "inputs": [
        {
          "internalType": "address",
          "name": "user",
          "type": "address"
        }
      ],
      "name": "getPrivateOperationCount",
      "outputs": [
        {
          "internalType": "uint256",
          "name": "",
          "type": "uint256"
        }
      ],
      "stateMutability": "view",
      "type": "function"
    },
    {
      "inputs": [
        {
          "internalType": "address",
          "name": "user",
          "type": "address"
        }
      ],
      "name": "getPublicVaultMetadata",
      "outputs": [
        {
          "internalType": "address",
          "name": "vaultOwner",
          "type": "address"
        },
        {
          "internalType": "uint256",
          "name": "operationCount",
          "type": "uint256"
        },
        {
          "internalType": "bytes32",
          "name": "encryptedBalanceHandle",
          "type": "bytes32"
        }
      ],
      "stateMutability": "view",
      "type": "function"
    },
    {
      "inputs": [
        {
          "internalType": "address",
          "name": "viewer",
          "type": "address"
        }
      ],
      "name": "grantBalanceAccess",
      "outputs": [],
      "stateMutability": "nonpayable",
      "type": "function"
    },
    {
      "inputs": [
        {
          "internalType": "address",
          "name": "user",
          "type": "address"
        }
      ],
      "name": "hasPrivateVault",
      "outputs": [
        {
          "internalType": "bool",
          "name": "",
          "type": "bool"
        }
      ],
      "stateMutability": "view",
      "type": "function"
    },
    {
      "inputs": [
        {
          "internalType": "address",
          "name": "",
          "type": "address"
        }
      ],
      "name": "isAllowed",
      "outputs": [
        {
          "internalType": "bool",
          "name": "",
          "type": "bool"
        }
      ],
      "stateMutability": "view",
      "type": "function"
    },
    {
      "inputs": [],
      "name": "owner",
      "outputs": [
        {
          "internalType": "address",
          "name": "",
          "type": "address"
        }
      ],
      "stateMutability": "view",
      "type": "function"
    },
    {
      "inputs": [
        {
          "internalType": "bool",
          "name": "required",
          "type": "bool"
        }
      ],
      "name": "setComplianceRequired",
      "outputs": [],
      "stateMutability": "nonpayable",
      "type": "function"
    },
    {
      "inputs": [
        {
          "internalType": "address",
          "name": "user",
          "type": "address"
        },
        {
          "internalType": "bool",
          "name": "allowed",
          "type": "bool"
        }
      ],
      "name": "setUserAllowed",
      "outputs": [],
      "stateMutability": "nonpayable",
      "type": "function"
    },
    {
      "inputs": [],
      "name": "totalVaults",
      "outputs": [
        {
          "internalType": "uint256",
          "name": "",
          "type": "uint256"
        }
      ],
      "stateMutability": "view",
      "type": "function"
    },
    {
      "inputs": [
        {
          "internalType": "uint256",
          "name": "",
          "type": "uint256"
        }
      ],
      "name": "vaultIndex",
      "outputs": [
        {
          "internalType": "address",
          "name": "",
          "type": "address"
        }
      ],
      "stateMutability": "view",
      "type": "function"
    },
    {
      "inputs": [
        {
          "internalType": "externalEuint64",
          "name": "encryptedAmount",
          "type": "bytes32"
        },
        {
          "internalType": "bytes",
          "name": "inputProof",
          "type": "bytes"
        }
      ],
      "name": "withdrawPrivate",
      "outputs": [],
      "stateMutability": "nonpayable",
      "type": "function"
    }
  ],
  "bytecode": "0x608060405234801561001057600080fd5b506100c561001c6100f7565b80517f9e7b61f58c47dc699ac88507c4f5bb9f121c03808c5676a8078fe583e464970080546001600160a01b03199081166001600160a01b039384161790915560208301517f9e7b61f58c47dc699ac88507c4f5bb9f121c03808c5676a8078fe583e46497018054831691841691909117905560408301517f9e7b61f58c47dc699ac88507c4f5bb9f121c03808c5676a8078fe583e46497028054909216921691909117905550565b600080546001600160a01b0319163390811782558152600160208190526040909120805460ff191690911790556102aa565b6040805160608101825260008082526020820181905291810191909152466001036101925750604080516060808201835260008083526020808401829052928401528251908101835273ca2e8f1f656cd25c01f05d0b243ab1ecd4a8ffb6815273d82385dada1ae3e969447f20a3164f6213100e75918101919091527377627828a55156b04ac0dc0eb30467f1a552bb039181019190915290565b4662aa36a7036102125750604080516060808201835260008083526020808401829052928401528251908101835273f0ffdc93b7e186bc2f8cb3daa75d86d1930a433d81527392c920834ec8941d2c77d188936e1f7a6f49c1279181019190915273be0e383937d564d7ff0bc3b46c51f0bf8d5c311a9181019190915290565b46617a6903610291575060408051606080820183526000808352602080840182905292840152825190810183527350157cffd6bbfa2dece204a89ec419c23ef5755d815273e3a9105a3a932253a70f126eb1e3b589c643dd249181019190915273be0e383937d564d7ff0bc3b46c51f0bf8d5c311a9181019190915290565b6040516373cac13b60e01b815260040160405180910390fd5b611302806102b96000396000f3fe608060405234801561001057600080fd5b506004361061010b5760003560e01c80638d654023116100a2578063a4ddebb311610071578063a4ddebb314610261578063a8ae15131461028e578063babcc539146102a1578063d1a81a8d146102c4578063e7ae5c89146102d757600080fd5b80638d654023146101f15780638da5cb5b146101fa57806392ba302b146102255780639c1f9bd91461023857600080fd5b8063402dc4e4116100de578063402dc4e4146101b557806384c4f72d146101d65780638927b030146101e95780638c40b34b146101b557600080fd5b80630ba74c32146101105780631be3ef2d1461012557806323e4dd151461014e578063280888b71461017d575b600080fd5b61012361011e36600461100b565b6102ea565b005b60005461013990600160a01b900460ff1681565b60405190151581526020015b60405180910390f35b61013961015c36600461100b565b6001600160a01b031660009081526002602052604090206003015460ff1690565b61019061018b36600461100b565b6103c9565b604080516001600160a01b039094168452602084019290925290820152606001610145565b6101c86101c336600461100b565b61043d565b604051908152602001610145565b6101236101e4366004611026565b61049a565b6101c8610650565b6101c860045481565b60005461020d906001600160a01b031681565b6040516001600160a01b039091168152602001610145565b6101236102333660046110b3565b61065f565b61020d6102463660046110d0565b6003602052600090815260409020546001600160a01b031681565b6101c861026f36600461100b565b6001600160a01b03166000908152600260208190526040909120015490565b61012361029c366004611026565b6106fe565b6101396102af36600461100b565b60016020526000908152604090205460ff1681565b6101236102d23660046110e9565b61085f565b6101236102e5366004611026565b61094a565b3360008181526002602052604090206003015460ff166103255760405162461bcd60e51b815260040161031c90611120565b60405180910390fd5b6001600160a01b03821661036c5760405162461bcd60e51b815260206004820152600e60248201526d24b73b30b634b2103b34b2bbb2b960911b604482015260640161031c565b336000908152600260205260409020600181015461038a9084610a9d565b60018201556040516001600160a01b0384169033907e6fb94224c0f35dfa3289ff16aaa5b0a6e158667760de7b87add3784ad400f390600090a3505050565b6001600160a01b03811660009081526002602052604081206003015481908190849060ff1661040a5760405162461bcd60e51b815260040161031c90611120565b505050506001600160a01b0390811660009081526002602081905260409091208054918101546001909101549190921692565b6001600160a01b038116600090815260026020526040812060030154829060ff1661047a5760405162461bcd60e51b815260040161031c90611120565b50506001600160a01b031660009081526002602052604090206001015490565b6000543390600160a01b900460ff1615806104cd57506001600160a01b03811660009081526001602052604090205460ff165b6104e95760405162461bcd60e51b815260040161031c90611157565b3360009081526002602052604090206003015460ff161561054c5760405162461bcd60e51b815260206004820152601c60248201527f50726976617465207661756c7420616c72656164792065786973747300000000604482015260640161031c565b600061058e8585858080601f016020809104026020016040519081016040528093929190818152602001838380828437600092019190915250610ac492505050565b905061059981610b2e565b90506105a58133610a9d565b33600081815260026020908152604080832080546001600160a01b03199081168617825560018083018890556003808401805460ff191690921790915560048054875294529184208054909216909417905580549394509192919061060983611185565b90915550506040805183815242602082015233917fbce069c1b373b53d137881d4d83e55ca286978b981f946ec5d839674e6b108db910160405180910390a2505050505050565b600061065a610b50565b905090565b6000546001600160a01b031633146106a65760405162461bcd60e51b815260206004820152600a60248201526927b7363c9037bbb732b960b11b604482015260640161031c565b60008054821515600160a01b0260ff60a01b199091161790556040517f866a9bf81826f238297fe700e4fdd9fa4970e7c7af9c5e5d274d72ccc11f4039906106f390831515815260200190565b60405180910390a150565b3360008181526002602052604090206003015460ff166107305760405162461bcd60e51b815260040161031c90611120565b6000543390600160a01b900460ff16158061076357506001600160a01b03811660009081526001602052604090205460ff165b61077f5760405162461bcd60e51b815260040161031c90611157565b60006107c18686868080601f016020809104026020016040519081016040528093929190818152602001838380828437600092019190915250610ac492505050565b3360009081526002602052604081206001810154929350916107e39084610b87565b90506107ee81610b2e565b90506107fa8133610a9d565b60018301819055600283018054919250600061081583611185565b90915550506040805182815242602082015233917f0698a0f40ec3ed2efa0f331f646186684166a347c1a0dc43cc163c8e3ada619391015b60405180910390a25050505050505050565b6000546001600160a01b031633146108a65760405162461bcd60e51b815260206004820152600a60248201526927b7363c9037bbb732b960b11b604482015260640161031c565b6001600160a01b0382166108eb5760405162461bcd60e51b815260206004820152600c60248201526b24b73b30b634b2103ab9b2b960a11b604482015260640161031c565b6001600160a01b038216600081815260016020908152604091829020805460ff191685151590811790915591519182527f1379766ad44d5e37687c4dc4ca83241006aebe613fc3df1b03488a64e8b0bee0910160405180910390a25050565b3360008181526002602052604090206003015460ff1661097c5760405162461bcd60e51b815260040161031c90611120565b6000543390600160a01b900460ff1615806109af57506001600160a01b03811660009081526001602052604090205460ff165b6109cb5760405162461bcd60e51b815260040161031c90611157565b6000610a0d8686868080601f016020809104026020016040519081016040528093929190818152602001838380828437600092019190915250610ac492505050565b336000908152600260205260408120600181015492935091610a2f9084610bc0565b9050610a3a81610b2e565b9050610a468133610a9d565b600183018190556002830180549192506000610a6183611185565b90915550506040805182815242602082015233917f80c0c271b411a9455f2919f86d4c9e2da85178a9185d148622b5b965da94f5a8910161084d565b600082610ab157610aae6000610bf2565b92505b610abb8383610c09565b50815b92915050565b60008151600014610ae257610adb83836005610c86565b9050610abe565b826000819003610afe57610af66000610bf2565b915050610abe565b610b088133610d8b565b610adb57604051630276b5d960e01b81526004810182905233602482015260440161031c565b600081610b4257610b3f6000610bf2565b91505b610b4c8230610c09565b5090565b600046600103610b605750600190565b4662aa36a703610b71575061271190565b46617a6903610b81575060001990565b50600090565b600082610b9b57610b986000610bf2565b92505b81610bad57610baa6000610bf2565b91505b610bb983836000610e1b565b9392505050565b600082610bd457610bd16000610bf2565b92505b81610be657610be36000610bf2565b91505b610bb983836000610edf565b6000610abe8267ffffffffffffffff166005610f5a565b60006000805160206112ad8339815191528054604051635ca4b5b160e11b8152600481018690526001600160a01b03858116602483015292935091169063b9496b6290604401600060405180830381600087803b158015610c6957600080fd5b505af1158015610c7d573d6000803e3d6000fd5b50505050505050565b60008051602061128d8339815191525460405163045fc19560e11b81526000916000805160206112ad833981519152916001600160a01b03909116906308bf832a90610cdc9088903390899089906004016111ce565b6020604051808303816000875af1158015610cfb573d6000803e3d6000fd5b505050506040513d601f19601f82011682018060405250810190610d1f9190611242565b8154604051630f8e573b60e21b8152600481018390523360248201529193506001600160a01b031690633e395cec90604401600060405180830381600087803b158015610d6b57600080fd5b505af1158015610d7f573d6000803e3d6000fd5b50505050509392505050565b6000806000805160206112ad83398151915280546040516382027b6d60e01b8152600481018790526001600160a01b0386811660248301529293509116906382027b6d90604401602060405180830381865afa158015610def573d6000803e3d6000fd5b505050506040513d601f19601f82011682018060405250810190610e13919061125b565b949350505050565b6000808215610e2f5750600160f81b610e33565b5060005b60008051602061128d833981519152546040516303056db360e31b815260048101879052602481018690526001600160f81b0319831660448201526000805160206112ad833981519152916001600160a01b03169063182b6d98906064015b6020604051808303816000875af1158015610eb1573d6000803e3d6000fd5b505050506040513d601f19601f82011682018060405250810190610ed59190611242565b9695505050505050565b6000808215610ef35750600160f81b610ef7565b5060005b60008051602061128d8339815191525460405163022f65e760e31b815260048101879052602481018690526001600160f81b0319831660448201526000805160206112ad833981519152916001600160a01b03169063117b2f3890606401610e92565b60008051602061128d83398151915254604051639cd07acb60e01b81526000916000805160206112ad833981519152916001600160a01b0390911690639cd07acb90610fac9087908790600401611278565b6020604051808303816000875af1158015610fcb573d6000803e3d6000fd5b505050506040513d601f19601f82011682018060405250810190610e139190611242565b80356001600160a01b038116811461100657600080fd5b919050565b60006020828403121561101d57600080fd5b610bb982610fef565b60008060006040848603121561103b57600080fd5b83359250602084013567ffffffffffffffff8082111561105a57600080fd5b818601915086601f83011261106e57600080fd5b81358181111561107d57600080fd5b87602082850101111561108f57600080fd5b6020830194508093505050509250925092565b80151581146110b057600080fd5b50565b6000602082840312156110c557600080fd5b8135610bb9816110a2565b6000602082840312156110e257600080fd5b5035919050565b600080604083850312156110fc57600080fd5b61110583610fef565b91506020830135611115816110a2565b809150509250929050565b6020808252601c908201527f50726976617465207661756c7420646f6573206e6f7420657869737400000000604082015260600190565b602080825260149082015273155cd95c881b9bdd08185b1b1bdddb1a5cdd195960621b604082015260600190565b6000600182016111a557634e487b7160e01b600052601160045260246000fd5b5060010190565b605481106111ca57634e487b7160e01b600052602160045260246000fd5b9052565b8481526000602060018060a01b038616602084015260806040840152845180608085015260005b818110156112115786810183015185820160a0015282016111f5565b50600060a0828601015260a0601f19601f8301168501019250505061123960608301846111ac565b95945050505050565b60006020828403121561125457600080fd5b5051919050565b60006020828403121561126d57600080fd5b8151610bb9816110a2565b82815260408101610bb960208301846111ac56fe9e7b61f58c47dc699ac88507c4f5bb9f121c03808c5676a8078fe583e46497019e7b61f58c47dc699ac88507c4f5bb9f121c03808c5676a8078fe583e4649700a2646970667358221220fde85ef468a9929a39425f61994b83ba497aa0cf25ffd56082a56351587a544a64736f6c63430008180033",
  "linkReferences": {},
  "deployedLinkReferences": {}
}